{
  "_format": "hh-sol-artifact-1",
  "contractName": "Storage",
  "sourceName": "contracts/Storage.sol",
  "abi": [
    {
      "inputs": [
        {
          "internalType": "string",
          "name": "_name",
          "type": "string"
        },
        {
          "internalType": "uint256",
          "name": "_age",
          "type": "uint256"
        }
      ],
      "name": "sign",
      "outputs": [],
      "stateMutability": "nonpayable",
      "type": "function"
    },
    {
      "inputs": [
        {
          "internalType": "uint256",
          "name": "",
          "type": "uint256"
        }
      ],
      "name": "signers",
      "outputs": [
        {
          "internalType": "uint256",
          "name": "age",
          "type": "uint256"
        },
        {
          "internalType": "string",
          "name": "name",
          "type": "string"
        }
      ],
      "stateMutability": "view",
      "type": "function"
    },
    {
      "inputs": [
        {
          "internalType": "string",
          "name": "",
          "type": "string"
        }
      ],
      "name": "signersAge",
      "outputs": [
        {
          "internalType": "uint256",
          "name": "",
          "type": "uint256"
        }
      ],
      "stateMutability": "view",
      "type": "function"
    }
  ],
  "bytecode": "0x608060405234801561001057600080fd5b50610979806100206000396000f3fe608060405234801561001057600080fd5b50600436106100415760003560e01c80632042d725146100465780632079fb9a1461006257806349986ed614610093575b600080fd5b610060600480360381019061005b919061032c565b6100c3565b005b61007c6004803603810190610077919061038c565b610193565b60405161008a929190610458565b60405180910390f35b6100ad60048036038101906100a891906105b8565b61024f565b6040516100ba9190610601565b60405180910390f35b6001604051806040016040528083815260200185858080601f016020809104026020016040519081016040528093929190818152602001838380828437600081840152601f19601f8201169050808301925050505050505081525090806001815401808255809150506001900390600052602060002090600202016000909190919091506000820151816000015560208201518160010190816101669190610828565b505050806000848460405161017c92919061092a565b908152602001604051809103902081905550505050565b600181815481106101a357600080fd5b90600052602060002090600202016000915090508060000154908060010180546101cc9061064b565b80601f01602080910402602001604051908101604052809291908181526020018280546101f89061064b565b80156102455780601f1061021a57610100808354040283529160200191610245565b820191906000526020600020905b81548152906001019060200180831161022857829003601f168201915b5050505050905082565b6000818051602081018201805184825260208301602085012081835280955050505050506000915090505481565b6000604051905090565b600080fd5b600080fd5b600080fd5b600080fd5b600080fd5b60008083601f8401126102b6576102b5610291565b5b8235905067ffffffffffffffff8111156102d3576102d2610296565b5b6020830191508360018202830111156102ef576102ee61029b565b5b9250929050565b6000819050919050565b610309816102f6565b811461031457600080fd5b50565b60008135905061032681610300565b92915050565b60008060006040848603121561034557610344610287565b5b600084013567ffffffffffffffff8111156103635761036261028c565b5b61036f868287016102a0565b9350935050602061038286828701610317565b9150509250925092565b6000602082840312156103a2576103a1610287565b5b60006103b084828501610317565b91505092915050565b6103c2816102f6565b82525050565b600081519050919050565b600082825260208201905092915050565b60005b838110156104025780820151818401526020810190506103e7565b60008484015250505050565b6000601f19601f8301169050919050565b600061042a826103c8565b61043481856103d3565b93506104448185602086016103e4565b61044d8161040e565b840191505092915050565b600060408201905061046d60008301856103b9565b818103602083015261047f818461041f565b90509392505050565b600080fd5b7f4e487b7100000000000000000000000000000000000000000000000000000000600052604160045260246000fd5b6104c58261040e565b810181811067ffffffffffffffff821117156104e4576104e361048d565b5b80604052505050565b60006104f761027d565b905061050382826104bc565b919050565b600067ffffffffffffffff8211156105235761052261048d565b5b61052c8261040e565b9050602081019050919050565b82818337600083830152505050565b600061055b61055684610508565b6104ed565b90508281526020810184848401111561057757610576610488565b5b610582848285610539565b509392505050565b600082601f83011261059f5761059e610291565b5b81356105af848260208601610548565b91505092915050565b6000602082840312156105ce576105cd610287565b5b600082013567ffffffffffffffff8111156105ec576105eb61028c565b5b6105f88482850161058a565b91505092915050565b600060208201905061061660008301846103b9565b92915050565b7f4e487b7100000000000000000000000000000000000000000000000000000000600052602260045260246000fd5b6000600282049050600182168061066357607f821691505b6020821081036106765761067561061c565b5b50919050565b60008190508160005260206000209050919050565b60006020601f8301049050919050565b600082821b905092915050565b6000600883026106de7fffffffffffffffffffffffffffffffffffffffffffffffffffffffffffffffff826106a1565b6106e886836106a1565b95508019841693508086168417925050509392505050565b6000819050919050565b600061072561072061071b846102f6565b610700565b6102f6565b9050919050565b6000819050919050565b61073f8361070a565b61075361074b8261072c565b8484546106ae565b825550505050565b600090565b61076861075b565b610773818484610736565b505050565b5b818110156107975761078c600082610760565b600181019050610779565b5050565b601f8211156107dc576107ad8161067c565b6107b684610691565b810160208510156107c5578190505b6107d96107d185610691565b830182610778565b50505b505050565b600082821c905092915050565b60006107ff600019846008026107e1565b1980831691505092915050565b600061081883836107ee565b9150826002028217905092915050565b610831826103c8565b67ffffffffffffffff81111561084a5761084961048d565b5b610854825461064b565b61085f82828561079b565b600060209050601f8311600181146108925760008415610880578287015190505b61088a858261080c565b8655506108f2565b601f1984166108a08661067c565b60005b828110156108c8578489015182556001820191506020850194506020810190506108a3565b868310156108e557848901516108e1601f8916826107ee565b8355505b6001600288020188555050505b505050505050565b600081905092915050565b600061091183856108fa565b935061091e838584610539565b82840190509392505050565b6000610937828486610905565b9150819050939250505056fea26469706673582212206a7f684ced415fdb8dc54e6e536abc28a8252c44b1a20b924c1d575ba2e8b07e64736f6c63430008180033",
  "linkReferences": {},
  "deployedLinkReferences": {}
}